:100000000C94F0000C9418010C9418010C94180135
:100010000C9418010C9418010C9418010C941801FC
:100020000C9418010C9418010C9418010C941801EC
:100030000C9418010C9418010C9418010C941801DC
:100040000C94CC080C9418010C943C090C941609DF
:100050000C9418010C9418010C9418010C941801BC
:100060000C9418010C94180100407A10F35A00A067
:10007000724E18090010A5D4E80000E87648170071
:1000800000E40B54020000CA9A3B000000E1F505B1
:10009000000080969800000040420F000000A086FB
:1000A00001000000102700000000E803000000002D
:1000B0006400000000000A000000000001000000D1
:1000C00000002C76D888DC674F0823DFC1DFAE59EB
:1000D000E1B1B796E5E3E453C63AE651997696E87E
:1000E000E6C28426EB898C9B62ED407C6FFCEFBC02
:1000F0009C9F40F2BAA56FA5F490055A2AF75C932D
:100100006B6CF9676DC11BFCE0E40D47FEF520E662
:10011000B500D0ED902E0300943577050080841E45
:10012000080000204E0A000000C80C333333330FA0
:10013000986E12831141EF8D2114893BE65516CF3D
:10014000FEE6DB18D1844B381BF77C1D901DA4BB49
:10015000E424203284725E228100C9F124ECA1E5FE
:100160003D27005EBCE2613FDD83C29C7E20A3FD93
:100170001F41009D23BE46DB65F88C11AF32CA5784
:10018000E97400000000240027002A00000000009D
:10019000250028002B0000000008000201000003D9
:1001A0000407000000000000000000000000230021
:1001B00026002900040404040404040402020202C8
:1001C000020203030303030301020408102040801A
:1001D0000102040810200102040810206E09D00E4C
:1001E00011241FBECFEFD8E0DEBFCDBF23E0ACE9C6
:1001F000B1E001C01D92A331B207E1F711E0A0E028
:10020000B1E0E0E2FAE202C005900D92AC39B1072C
:10021000D9F710E0CFEED0E004C02197FE010E9494
:100220000213CE3ED107C9F70E94740A0C9403153D
:100230000C94000080E480937C0080917A008064BC
:1002400080937A0080917A0086FDFCCF80917800BF
:1002500090917900089596E0899FD0011124A056CD
:10026000BD4F90967C936E935F9791E091969C938F
:100270009197E0910D03F0910E0390910C03992357
:1002800039F0309751F0811108C08091BC02099477
:10029000309719F05C968C91FACF0895833081F0F5
:1002A00028F4813099F08230A9F008958730A9F0C0
:1002B0008830C9F08430B1F4809180008F7D03C014
:1002C000809180008F7780938000089584B58F7728
:1002D00084BD089584B58F7DFBCF8091B0008F776A
:1002E0008093B00008958091B0008F7DF9CFCF93B7
:1002F000DF93282F30E0F901EA56FE4F8491F9018F
:10030000E853FE4FD491F901EC54FE4FC491CC2335
:10031000A1F081110E944E01EC2FF0E0EE0FFF1FC3
:10032000E655FE4FA591B491EC91ED2381E090E06C
:1003300009F480E0DF91CF91089580E090E0FACF5A
:100340001F93CF93DF93282F30E0F901EA56FE4F39
:100350008491F901E853FE4FD491F901EC54FE4F1A
:10036000C491CC23A9F0162F81110E944E01EC2FCD
:10037000F0E0EE0FFF1FE457FE4FA591B4918FB749
:10038000F894EC91111108C0D095DE23DC938FBF57
:10039000DF91CF911F910895DE2BF8CFCF93DF939C
:1003A00090E0FC01E853FE4F24918C549E4FFC01D9
:1003B00084918823C9F090E0880F991FFC01EE57C3
:1003C000FE4FA591B491FC01E457FE4FC591D49125
:1003D00061110DC09FB7F8948C91209582238C9366
:1003E0008881282328839FBFDF91CF9108956230B1
:1003F00051F49FB7F8943C91822F809583238C937E
:10040000E8812E2BEFCF8FB7F894EC912E2B2C9305
:100410008FBFEACF1F93CF93DF93182FEB0161E0DB
:100420000E94CE01209739F460E0812FDF91CF91B7
:100430001F910C94A001CF3FD10511F461E0F5CFDD
:10044000E12FF0E0EA56FE4FE491E33031F140F461
:10045000E130B1F0E230E1F0C038D1057CF7E4CF13
:10046000E73029F1E83059F1E430B1F780918000AC
:10047000806280938000D0938B00C0938A0004C078
:1004800084B5806884BDC7BDDF91CF911F91089569
:1004900084B5806284BDC8BDF7CF8091800080683C
:1004A00080938000D0938900C0938800EDCF809125
:1004B000B00080688093B000C093B300E5CF809116
:1004C000B00080628093B000C093B400DDCF3FB72E
:1004D000F8948091AA019091AB01A091AC01B091E8
:1004E000AD0126B5A89B05C02F3F19F00196A11DAF
:1004F000B11D3FBFBA2FA92F982F8827BC01CD016E
:10050000620F711D811D911D42E0660F771F881FCC
:10051000991F4A95D1F708952FB7F8946091A601D5
:100520007091A7018091A8019091A9012FBF089512
:100530000F931F93CF93DF93C82FD62F86E0C89FCA
:10054000F0011124E056FD4F11A2878D90A181305A
:100550009105F1F058F082309105F1F1039709F41B
:1005600040C0DF91CF911F910F9108956623C9F389
:1005700061E070E08C2F0E942B010E948C0260933E
:10058000F8027093F9028093FA029093FB02E9CF8C
:100590000E948C020091F8021091F9022091FA0257
:1005A0003091FB02AB01BC01401B510B620B730B82
:1005B00080910A0390910B03B0E0A0E084179507A7
:1005C000A607B70748F462E070E08C2FDF91CF9167
:1005D0001F910F910C942B0163E070E0D111C1CFFA
:1005E000F4CF70E060E0F1CF862F642F0C94CE0141
:1005F000862F642F0C94A001862F0C947701AF9264
:10060000BF92CF92DF92EF92FF920F931F93CF93FF
:10061000DF936C017B018B01040F151FEB015E0161
:10062000AE18BF08C017D10759F06991D601ED91F6
:10063000FC910190F081E02DC6010995892B79F795
:10064000C501DF91CF911F910F91FF90EF90DF9047
:10065000CF90BF90AF900895CF93DF93FC0144817A
:100660005581608171818EEA91E00E94FF02EC0168
:1006700042E050E06BE371E08EEA91E00E94FF02FD
:100680008C0F9D1FDF91CF910895FC01538D448DF8
:10069000252F30E0842F90E0821B930B541710F02D
:1006A000CF96089501970895FC01918D828D98173A
:1006B00061F0A28DAE0FBF2FB11D5D968C91928D12
:1006C0009F5F9F73928F90E008958FEF9FEF089543
:1006D000FC01918D828D981731F0828DE80FF11D0C
:1006E000858D90E008958FEF9FEF0895FC01918D27
:1006F000228D892F90E0805C9F4F821B91098F7320
:10070000992708958EEA91E00E94760321E0892BD3
:1007100009F420E0822F089580E090E0892B29F0F1
:100720000E94820381110C9400000895FC01A48DA5
:10073000A80FB92FB11DA35ABF4F2C91848D90E003
:1007400001968F739927848FA689B7892C93A089E6
:10075000B1898C91837080648C93938D848D981370
:1007600006C00288F389E02D80818F7D8083089503
:10077000EF92FF920F931F93CF93DF93EC0181E0F1
:10078000888F9B8D8C8D98131AC0E889F989808198
:1007900085FF15C09FB7F894EE89FF896083E889CB
:1007A000F98980818370806480839FBF81E090E0BD
:1007B000DF91CF911F910F91FF90EF900895F62E4A
:1007C0000B8D10E00F5F1F4F0F731127E02E8C8DE4
:1007D0008E110CC00FB607FCFACFE889F989808129
:1007E00085FFF5CFCE010E949603F1CFEB8DEC0F84
:1007F000FD2FF11DE35AFF4FF0829FB7F8940B8F46
:10080000EA89FB8980818062CFCFCF93DF93EC01AF
:10081000888D8823B9F0AA89BB89E889F9898C91E8
:1008200085FD03C0808186FD0DC00FB607FCF7CFA4
:100830008C9185FFF2CF808185FFEDCFCE010E94A4
:100840009603E9CFDF91CF910895DC0180E06150FC
:1008500090F09D919827E92FEF70F0E0EE59FE4F50
:100860002491E92FE295EF70F0E0EE58FE4FE4910D
:10087000822F8E27ECCF0895DC012C911196ED91FB
:10088000FC91F8948181822B81839281322F309563
:100890009323928387E090E00197F1F7818183238E
:1008A000818383E290E00197F1F790817894EFECF7
:1008B000F0E03197F1F7922381E009F480E00895A8
:1008C000FC0190810180F281E02D292F209560FFAD
:1008D00014C0F8948281822382838181892B818351
:1008E000A3E2B0E01197F1F78281982B928378947C
:1008F00087ED90E00197F1F70895F89482818223C3
:1009000082838181892B8183AFEFB0E01197F1F76A
:100910008281982B928378948FE090E0EBCFDF92E6
:10092000EF92FF920F931F93CF93DF93EC01D62E9C
:10093000E42E08E010E0FF24F39461E08D2D8F2178
:1009400009F460E0CE010E946004FF0C015011091F
:10095000A1F7E11010C0F894E981FA8191818881B2
:10096000809589238183E981FA81928188818095AC
:10097000892382837894DF91CF911F910F91FF900B
:10098000EF90DF900895EF92FF920F931F93CF9314
:10099000DF938C017B0140E065E50E948F04E70155
:1009A00088E0E80EF11C699140E0C8010E948F04C4
:1009B000CE15DF05C1F7DF91CF911F910F91FF9009
:1009C000EF900895FC0190810180F281E02DF89470
:1009D0008181292F20958223818378943DE743E00C
:1009E00050E0315029F1DA011197F1F78081892324
:1009F000C1F3F8948281822382838181892B818350
:100A00007894ABE7B7E01197F1F7F89481818223EE
:100A10008183A3E1B1E01197F1F78081982381E010
:100A200009F080E07894E3E6F6E03197F1F7089575
:100A300080E008956F927F928F929F92AF92BF92C3
:100A4000CF92DF92EF92FF920F931F93CF93DF939A
:100A50008C01EB0180918402909185020E94E20456
:100A6000882309F43FC0B8018091840290918502E7
:100A70000E94C30440E06EEB809184029091850255
:100A80000E948F047E016E0189E0C80ED11C8E0188
:100A9000A0908402B090850288E0882E912C712C61
:100AA00066246394C5010E943C0481117628660C7B
:100AB000E1E08E1A9108B1F7F80171928F01CE161C
:100AC000DF0631F780918402909185020E94E20452
:100AD000813041F4F70181917F01811105C0E01758
:100AE000F107C1F790E008C068E0CE010E9425043C
:100AF00091E028852813F6CF892FDF91CF911F91A0
:100B00000F91FF90EF90DF90CF90BF90AF909F90AC
:100B10008F907F906F9008958F929F92AF92BF9227
:100B2000CF92DF92EF92FF928091840290918502A2
:100B30000E94E20440E06CEC809184029091850276
:100B40000E948F0440917B0264E480918402909122
:100B500085020E948F0480917F02882309F1E09131
:100B60007E0280918002882321F180917B02811195
:100B700020C00E948C026B017C01809184029091C4
:100B800085020E943C04813059F00E948C026C194D
:100B90007D098E099F096E3E72408105910568F3BB
:100BA000FF90EF90DF90CF90BF90AF909F908F908D
:100BB0000895E9508EEE92E0E33038F4F0E0EE0F65
:100BC000FF1FE75EFE4F808191816C01990FEE0857
:100BD000FF0880917C02882329F060E080917D02EB
:100BE0000E94A0010E9467024B015C01C114D10464
:100BF000E104F104B9F00E946702681979098A09D1
:100C00009B09683E73408105910580F381E0C81A15
:100C1000D108E108F10828EE820E23E0921EA11C03
:100C2000B11CE4CF80917C02882309F4B9CF61E044
:100C300080917D02FF90EF90DF90CF90BF90AF90BA
:100C40009F908F900C94A0010F931F93CF93DF93ED
:100C50008B01EA01BC0189E00E940A02B8018AE026
:100C60000E940A02BE018BE0DF91CF911F910F918C
:100C70000C940A02BF92CF92DF92EF92FF920F93F1
:100C80001F93CF93DF93EC01B62EC72E8D85811174
:100C900005C0CE010E94E20481110EC01B861D8694
:100CA0001C8680E0DF91CF911F910F91FF90EF9014
:100CB000DF90CF90BF90089540E060EFCE010E949A
:100CC0008F0401E0E12CD12C11E0CE010E943C0404
:100CD000F82ECE010E943C0491E0F91218C0813038
:100CE00099F51134D8F2DB86D11002C081E08D87EE
:100CF0008B81882399F22396EB2DFC2DCF0108964A
:100D000029912193E817F907D9F781E0CBCFEE2D90
:100D1000F0E0F8120FC08B851817A0F4DE01AE0FBB
:100D2000BF1F13968C91802379F4F12C193008F4AD
:100D30001C87D12EEC0FFD1F8381902F9095892366
:100D400083830AC08113F1CFFE01EE0DF11D838173
:100D5000802B8383FF24F3946F2DCE010E946004C7
:100D60001F5F000F11F4E39401E087E08E1508F097
:100D7000ACCFB7CFCF93DF93CDB7DEB761970FB6C8
:100D8000F894DEBF0FBECDBFE0918402F0918502E2
:100D9000138615861486128611861086178216828F
:100DA000158214821382BE01665F7F4F8091840298
:100DB000909185020E943A0681110DC060E070E0BA
:100DC0008EEF92EC61960FB6F894DEBF0FBECDBFEA
:100DD000DF91CF91089567E0CE010A960E94250425
:100DE00099898913EBCFBE016F5F7F4FCE010A96C1
:100DF0000E941A05882311F36A8170E0762F662716
:100E0000770F770F770F298148E0249F90011124F5
:100E1000262B372B8A858031E1F468856623C9F05B
:100E200070E08F81AB01481B5109CA019695982F3C
:100E30008827979587950E94DA12CB018097B90190
:100E400053E0660F771F5A95E1F760789C01260FF3
:100E5000371F213854EE35070CF4B0CFB901330FEA
:100E6000880B990B0E94811120E030E040E05CE3A8
:100E70000E94E011A7CF2091550230915602232BFA
:100E800039F421E0FC018081882361F020E00AC070
:100E9000BC0180915102909152020E94F31421E012
:100EA000892BA1F7822F0895FC0124813581FB0154
:100EB0004481558124173507E1F4FC01808191813B
:100EC000FB01608171810097D1F061157105A1F47A
:100ED000232BC1F0FC01808190E008C0232B91F00E
:100EE000FB01808190E091958195910921E0892B0A
:100EF00009F020E0822F08950E94F314F7CF6115C6
:100F0000710561F721E0F6CF0F931F93CF93DF9325
:100F1000EC0188819981009759F02A813B8126173D
:100F2000370730F081E0DF91CF911F910F91089545
:100F30008B016F5F7F4F0E942D14009759F09983AA
:100F400088831B830A832C813D81232B59F7FC0165
:100F50001082E8CF80E0E7CFEF92FF920F931F93CC
:100F6000CF93DF936115710541F480E0DF91CF915C
:100F70001F910F91FF90EF90089541155105B1F029
:100F80007B01EC010C811D81040F151FB8010E942B
:100F90008407882351F3288139818C819D81B70191
:100FA000820F931F0E94FC141D830C8381E0DECF0F
:100FB000CF93DF93EC0188819981009711F00E9413
:100FC000A413198218821D821C821B821A82DF914F
:100FD000CF910895CF93DF93EC0144E050E06EE3AE
:100FE00071E00E94AC07811103C0CE010E94D807B6
:100FF000CE01DF91CF910895CF93DF93EC01FB01F8
:1010000044815581608171810E94AC07811103C0C8
:10101000CE010E94D807CE01DF91CF910895EF92C3
:10102000FF920F931F93CF93DF93EC017B018A0113
:10103000BA010E94840781110BC0CE010E94D8071B
:10104000CE01DF91CF911F910F91FF90EF90089506
:101050001D830C83B701888199810E94FC14F0CF15
:10106000FB0101900020E9F73197AF01461B570BB8
:101070000C940F080F931F93CF93DF93CDB7DEB778
:1010800062970FB6F894DEBF0FBECDBF8C01CB01C7
:10109000F8011182108213821282158214824AE0B2
:1010A000BE016F5F7F4F0E940E0FBE016F5F7F4FCB
:1010B000C8010E94300862960FB6F894DEBF0FBEDA
:1010C000CDBFDF91CF911F910F910895EF92FF92C5
:1010D0000F931F93CF93DF93CDB7DEB7A1970FB6D2
:1010E000F894DEBF0FBECDBF7C01CB01BA01F70182
:1010F0001182108213821282158214828E010F5F78
:101100001F4F22E044E00E94F00E009789F0BC01DE
:10111000C7010E943008A1960FB6F894DEBF0FBE3B
:10112000CDBFDF91CF911F910F91FF90EF90089568
:10113000C7010E94D807EFCFCF93DF93EC01FB01EB
:101140008617970749F0608171816115710541F03B
:10115000448155810E940F08CE01DF91CF910895FF
:101160000E94D807F9CFFC011182108213821282EB
:1011700015821482FB0101900020E9F73197AF013D
:10118000461B570B0C940F08FC018081918100973E
:1011900011F00C94A41308951F920F920FB60F92A2
:1011A00011242F933F938F939F93AF93BF9380917D
:1011B000A6019091A701A091A801B091A901309139
:1011C000A50123E0230F2D3758F50196A11DB11D70
:1011D0002093A5018093A6019093A701A093A80155
:1011E000B093A9018091AA019091AB01A091AC01AB
:1011F000B091AD010196A11DB11D8093AA019093FC
:10120000AB01A093AC01B093AD01BF91AF919F91A1
:101210008F913F912F910F900FBE0F901F901895B7
:1012200026E8230F0296A11DB11DD2CF1F920F9267
:101230000FB60F9211242F933F934F935F936F93A9
:101240007F938F939F93AF93BF93EF93FF938EEA18
:1012500091E00E949603FF91EF91BF91AF919F9112
:101260008F917F916F915F914F913F912F910F904F
:101270000FBE0F901F9018951F920F920FB60F92EE
:1012800011242F938F939F93EF93FF93E091BE01CF
:10129000F091BF018081E091C401F091C50182FD10
:1012A0001BC090818091C7018F5F8F732091C8010F
:1012B000821741F0E091C701F0E0E255FE4F958FB3
:1012C0008093C701FF91EF919F918F912F910F9084
:1012D0000FBE0F901F9018958081F4CF1092B1012E
:1012E0001092B00188EE93E0A0E0B0E08093B201EC
:1012F0009093B301A093B401B093B50183E291E060
:101300009093AF018093AE0185EC90E09093BB0188
:101310008093BA0184EC90E09093BD018093BC016E
:1013200080EC90E09093BF018093BE0181EC90E04F
:101330009093C1018093C00182EC90E09093C3012F
:101340008093C20186EC90E09093C5018093C40124
:101350001092C7011092C8011092C9011092CA01DF
:101360001092A2021092A6021092A5021092A70259
:1013700085E391E09093A1028093A002ECEBF2E070
:101380001082148213821582369682E0E83FF807B5
:10139000B9F783E091E0909303038093020380E028
:1013A00091E0909305038093040384E08093060307
:1013B00083E08093070387E091E09093010380939B
:1013C00000038AE090E0909309038093080384EF80
:1013D00091E090930B0380930A0310920E031092F6
:1013E0000D031092FC021092FD021092FE02109268
:1013F000FF0210920C0360E08CE00E94CE01E4ED4D
:10140000F1E0E491E0939202E0ECF1E0E491F0E0AD
:10141000EE0FFF1FE655FE4F859194919093940235
:101420008093930210929D0210929F0210929E024E
:1014300010929C0210929B0210929A0210929902B2
:1014400010929802109297021092960210929502B2
:10145000109291021092900210927C0282E992E026
:1014600090938502809384021092820210928302EC
:1014700010927B0289E080937E0281E080937F025C
:10148000809380028093810263E471E085E792E0BB
:101490000E94B3086DE371E08FE692E00E94B3080A
:1014A00069E471E087E592E00E94B3086EE571E0BF
:1014B0008DE592E00E94B3086BE571E083E692E06F
:1014C0000E94B30867E671E089E692E00E94B308E3
:1014D0006DE371E081E592E00E94B3086DE371E095
:1014E0008BE492E00C94B308CF93DF93CDB7DEB7D3
:1014F00061970FB6F894DEBF0FBECDBF789484B568
:10150000826084BD84B5816084BD85B5826085BDFF
:1015100085B5816085BD80916E00816080936E008D
:10152000109281008091810082608093810080917F
:101530008100816080938100809180008160809330
:1015400080008091B10084608093B1008091B000F0
:1015500081608093B00080917A00846080937A00EB
:1015600080917A00826080937A0080917A00816015
:1015700080937A0080917A00806880937A0010923C
:10158000C100E091BE01F091BF0182E08083E09153
:10159000BA01F091BB011082E091BC01F091BD0154
:1015A0008FEC80831092C601E091C201F091C301DB
:1015B00086E08083E091C001F091C101808180616B
:1015C0008083E091C001F091C101808188608083B7
:1015D000E091C001F091C101808180688083E09139
:1015E000C001F091C10180818F7D8083E0918402F0
:1015F000F091850213861586148612861186108650
:10160000178216821582148213821092820210921F
:10161000830211E0BE01665F7F4F8091840290914A
:1016200085020E943A06882309F475C067E0CE015E
:101630000A960E94250499898913ECCF8091820231
:101640008F5F809382028A85883231F008F049C02A
:10165000803111F08232F1F6809183028F5F8093A6
:10166000830280917B02811128C080918402909135
:1016700085020E94E204BE01665F7F4F8091840272
:10168000909185020E94C30440E064EB8091840243
:10169000909185020E948F0480918402909185022E
:1016A0000E943C04082F80918402909185020E9440
:1016B000E204011102C010937B028A858031E1F0BF
:1016C000BE016F5F7F4FCE010A960E941A058823E4
:1016D00031F08D818F3391F058F48F31C1F080E07B
:1016E0000EC08B3309F4B8CF823409F093CFB4CF56
:1016F0008F3579F08F3799F78CE001C08AE09091AF
:101700007E02981708F086CF80937E0283CF89E00F
:10171000F6CF8BE0F4CF63E672E081E592E00E94C1
:101720009C086DE371E08BE492E00E94300861E078
:1017300089E00E94CE0161E08AE00E94CE0161E072
:101740008BE00E94CE01412C512C3201439440E0A9
:10175000A42E40E0B42E21E020930C030E948C02C2
:101760000091FC021091FD022091FE023091FF02D7
:10177000AB01BC01401B510B620B730B8091080342
:1017800090910903B0E0A0E084179507A607B7077A
:1017900008F08FC110E080910603181760F4E09103
:1017A0000203F0910303E10FF11D62E080810E94CA
:1017B000CE011F5FF0CF312C80910703381608F05F
:1017C00061C0E32CF12CE0910403F0910503EE0DD0
:1017D000FF1D61E080810E94CE01E0910403F09141
:1017E0000503EE0DFF1D60E080810E94A001D30182
:1017F000C201032C04C0880F991FAA1FBB1F0A94A3
:10180000D2F74C016C01C094D094212C8091060336
:10181000281608F5022D10E0E0910203F091030371
:10182000E00FF11F80810E9477010C5F1F4F000FB6
:10183000111FF801E056FD4F892B41F48081918101
:1018400088299929918380832394E0CF8081918195
:101850008C219D21F7CFE0910403F0910503EE0D5B
:10186000FF1D61E080810E94A0018091040390919E
:101870000503E80EF91E60E0F70180810E94CE01A9
:1018800033949ACF00EA12E07801F701878D90A196
:10189000892B31F4148E8FEF9FEF968F858F11A2D5
:1018A00096E0E90EF11CECEDF2E0EE15FF0569F7AC
:1018B000D12C80910603D81608F053C0C12C8D2C72
:1018C000912C880C991CC40188559D4F4C01209186
:1018D0000703C21608F043C0F401608171810C2C2B
:1018E00002C0769567950A94E2F7D29E9001112482
:1018F0002C0D311DE0EAF2E080E0458D568D241775
:10190000350709F44BC28F5F36968A30B1F760FF16
:1019100024C0E0EAF2E090E080E0448D411118C07C
:10192000E0910003F0910103E20FF31F408156E0C4
:10193000589FF001599FF00D1124E056FD4F448F40
:10194000368F258F10A2178E61E00E94980205C085
:10195000019636968A30910501F7C394B8CFD39497
:10196000A8CFD12CF80181A18111D82E0A5F1F4F79
:10197000E016F106B9F70E948C026093FC027093A6
:10198000FD028093FE029093FF02DD2009F491C0D6
:101990008091C102882309F48CC08091BF0290918C
:1019A000C002019709F085C01091BC02111185C0D9
:1019B0008091BF029091C002019799F4133289F48B
:1019C0008091A40181110DC00E948C026093A0013E
:1019D0007093A1018093A2019093A301F1E0F09391
:1019E000A4018091A401882319F10E948C02009126
:1019F000A0011091A1012091A2013091A301601BCF
:101A0000710B820B930B683873418105910580F04F
:101A100067E572E081E592E00E949C081092A401C3
:101A20001092A0011092A1011092A2011092A301A4
:101A30008091BF029091C002039771F48091A4013C
:101A4000882351F01092A4011092A0011092A101DC
:101A50001092A2011092A3016BE472E081E592E082
:101A60000E94540781110AC081E592E00E942C0374
:101A700061E572E08BE492E00E949C0889E491E0C9
:101A80000E943B07882309F488C04FEF50E070E0C4
:101A900060E090E080E00E942406A114B10409F403
:101AA0005ACE0E948203882309F455CE0E9400007A
:101AB00052CE10920C0310E07BCF1A3239F46DE352
:101AC00071E08FE692E00E94300872CF133209F085
:101AD00046C067E572E081E592E00E9454078111FB
:101AE00024C08091A401811163CF65E772E08FE685
:101AF00092E00E945407882311F36DE572E081E5BE
:101B000092E00E94540763E672E0882329F081E5A1
:101B100092E00E949C08D3CF81E592E00E94540796
:101B2000882369F26DE572E0F2CF809173029091A3
:101B30007402059709F03CCF6FE672E085E792E00A
:101B40000E949C086DE371E08FE692E00E943008ED
:101B500063E672E081E592E00E949C0829CF198338
:101B60001A8241E050E0BE016F5F7F4F8FE692E046
:101B70000E94AC0765E771E0CE0101960E94B308B0
:101B80006FE672E0CE0101960E94FC070E942C03D2
:101B9000CE0101960E94C4080BCF8EE591E00E9411
:101BA0003B07882309F476C050E040E06FEF70E017
:101BB00090E080E00E9424060E948C0200919C012B
:101BC00010919D0120919E0130919F01601B710B2E
:101BD000820B930B603A7F408105910508F45DCF3D
:101BE0000E948C050E94BA066B017C01BC01A60113
:101BF000CE0101960E9466086FE771E0CE010A9659
:101C00000E94B308BE016F5F7F4FCE010A960E940B
:101C1000FC070E94EA070E942C03CE010A960E944C
:101C2000C408CE0101960E94C4080E941A01BC019A
:101C3000CE0101960E943A086DE871E0CE010A9645
:101C40000E94B308BE016F5F7F4FCE010A960E94CB
:101C5000FC070E942C03CE010A960E94C408CE0104
:101C600001960E94C40820E030E04CE052E4C70135
:101C7000B6010E94D51269E672E087FF8AC00E9411
:101C80008C0260939C0170939D0180939E019093C0
:101C90009F0103CF8BE591E00E943B07882339F039
:101CA00050E040E070E060E08FEF90E0F4CE87E637
:101CB00091E00E943B07882309F4EFCE50E040E01A
:101CC0006FEF70E08FEF90E00E9424060E948C027C
:101CD00000919C0110919D0120919E0130919F01E6
:101CE000601B710B820B930B603A7F40810591055D
:101CF00008F4D3CE0E948C050E94BA066B017C01C9
:101D0000BC01A601CE0101960E9466086FE771E052
:101D1000CE010A960E94B308BE016F5F7F4FCE01CD
:101D20000A960E94FC070E94EA070E942C03CE013B
:101D30000A960E94C408CE0101960E94C4080E941F
:101D40001A01BC01CE0101960E943A086DE871E0CB
:101D5000CE010A960E94B308BE016F5F7F4FCE018D
:101D60000A960E94FC070E942C03CE010A960E944C
:101D7000C408CE0101960E94C40820E030E04CE087
:101D800052E4C701B6010E947A1187FF78CF6DE552
:101D900072E081E592E00E949C0871CF6170D5CD20
:101DA0008BE492E00E94C40881E592E00E94C4089E
:101DB00089E692E00E94C40883E692E00E94C4088B
:101DC0008DE592E00E94C40887E592E00E94C40875
:101DD0008FE692E00E94C40885E792E00C94C40864
:101DE000EF920F931F93CF93DF93E80134E047FD09
:101DF00034E1042E000C550B57FF03C0519541955B
:101E00005109E32E022F242FAE010E94330FCE0181
:101E1000DF91CF911F910F91EF900895BB274A302A
:101E200031F4992322F4BDE2909581959F4F0C9453
:101E30001A0FBB27FB015527AA27880F991FAA1F36
:101E4000A41710F0A41B83955051B9F7A05DAA33D5
:101E500008F0A95DA193009779F7B111B1931192A0
:101E6000CB010C946A11A9E0B0E0E9E3FFE00C9427
:101E7000A4126A01F22EB02E102FFBE3AF2EA01693
:101E800008F41BE31F5F012F27E0AE014F5F5F4F98
:101E90000E949210BC018981982F9970913009F4A9
:101EA0003FC09BE2E1FC04C09E2D9170E0FC3AC073
:101EB0005E2D5071E82FE87083FF46C084E09111D9
:101EC00001C083E0EF2DE81B8F1508F0E0E0D6019C
:101ED0008E2F20E2552351F1992329F0D6019C93AE
:101EE000C60101966C0196012D5F3F4FE2FE24C0B2
:101EF0008EE4D6018C9391E411969C9311971296DF
:101F00008C93D9018E2F90E281111BC0E20FF32F29
:101F1000F11D10828EEF9FEF2996ECE00C94C01219
:101F20009DE2C6CF90E2C4CF2D9381508111FCCFAA
:101F3000CE0ED11CE0E0D0CF8EE6D6018C9391E698
:101F4000DBCF9D938150E0CF482F447082FF3DC08E
:101F500084E0911101C083E08F1510F4EF2DE81B90
:101F6000D6018E2F20E2552309F1992329F0D601BD
:101F70009C93C60101966C0196012D5F3F4FE2FED6
:101F80001BC089E4D6018C938EE411968C93119733
:101F900086E412968C93D9018E2F90E2882309F45F
:101FA000B5CF9D938150FACF2D9381508111FCCFF5
:101FB000CE0ED11CE0E0D9CF89E6D6018C938EE617
:101FC00011968C93119786E6E4CF9B0177FF02C0B0
:101FD00030E020E0A1E0B0E0911102C0B0E0A0E06C
:101FE000F9013196AE0FBF1F8B2C912CBB2009F449
:101FF00061C05401EFEFAE1ABE0AAA0DBB1DFA165E
:102000001B0619F014F04F2D4A1B511188C0E3FC38
:1020100059C07601A42FB0E2A1114FC0C40ED11C4B
:10202000992309F45BC040E0D6011196F601908334
:102030006D01552309F448C0012F060F9A81582FCE
:10204000507184FF03C0913309F4015010160CF055
:1020500047C0093008F008E0EEE2FE2E5B01A01A4E
:10206000B10885019194819491082F3F320729F49A
:10207000D601FC92F60131966F016217730794F155
:10208000021713077CF5DB01A21BB30BAA24A39450
:10209000B12CAC0EBD1EAA0DBB1D11968C9121500A
:1020A0003109D601119628153905F4F0F60180831F
:1020B0006D01DBCFB12CA12CA0CFF701B1937F0133
:1020C000A150AACF9111B0CFD601942F50E302C0F6
:1020D0005D9391509111FCCFC40ED11C40E0ACCF68
:1020E00001E0BACF80E3DBCF6217730731F4963398
:1020F00088F4953311F4552369F0F6018083FD01CE
:10210000842F90E2811108C0A40FB11D1C9290E0B1
:1021100080E002CF81E3F1CF91938150F3CF911111
:1021200083CF8ACF283008F027E03327DA01990FD0
:10213000311D87FD916000966105710539F43260AB
:102140002E5F3D9330E32A95E1F708959F3F30F0ED
:1021500080387105610509F03C5F3C5F3D9391302B
:1021600008F08068911DDF93CF931F930F93FF9228
:10217000EF92192F987F9695E92F96959695E90FEE
:10218000FF27EE53FF4F99273327EE24FF24A701A3
:10219000E70105900894079428F4360FE71EF81E0F
:1021A000491F511D660F771F881F991F0694A1F7BD
:1021B0000590079428F4E70EF81E491F561FC11D0D
:1021C000770F881F991F661F0694A1F70590079443
:1021D00028F4F80E491F561FC71FD11D880F991FDD
:1021E000661F771F0694A1F70590079420F4490F06
:1021F000561FC71FD81F990F661F771F881F069489
:10220000A9F784911095177041F0D695C795579509
:102210004795F794E7941A95C1F7E8E6F0E06894DB
:102220001590159135916591959105907FE2739583
:10223000E118F10A430B560BC90BD009C0F7E10CAA
:10224000F11E431F561FC91FD01D7EF4703311F4B9
:102250008A95E6CFE894015030F0080F0AF4002781
:10226000021708F4202F2395022F7A3328F079E300
:102270007D932A95E9F710C07D932A9589F60694F7
:1022800097956795379517951794E118F10A430BC1
:10229000560BC90BD00998F023957E9173957A332C
:1022A00008F070E37C932013B8F77E9170617D9302
:1022B00030F0839571E37D9370E32A95E1F7112463
:1022C000EF90FF900F911F91CF91DF91992787FD9C
:1022D00090950895DC01FC01672F71917723E1F758
:1022E000329704C07C916D9370836291AE17BF07E3
:1022F000C8F308950E94BC1108F481E00895E894A1
:1023000009C097FB3EF490958095709561957F4F3D
:102310008F4F9F4F9923A9F0F92F96E9BB279395EB
:10232000F695879577956795B795F111F8CFFAF4FB
:10233000BB0F11F460FF1BC06F5F7F4F8F4F9F4F2C
:1023400016C0882311F096E911C0772321F09EE88A
:10235000872F762F05C0662371F096E8862F70E0F0
:1023600060E02AF09A95660F771F881FDAF7880FCA
:102370009695879597F90895990F0008550FAA0B20
:10238000E0E8FEEF16161706E807F907C0F0121688
:102390001306E407F50798F0621B730B840B950B8B
:1023A00039F40A2661F0232B242B252B21F40895E0
:1023B0000A2609F4A140A6958FEF811D811D08957D
:1023C0000E94F3110C9464120E94561238F00E947D
:1023D0005D1220F0952311F00C944D120C945312C1
:1023E00011240C9498120E94751270F3959FC1F3FA
:1023F000950F50E0551F629FF001729FBB27F00DB3
:10240000B11D639FAA27F00DB11DAA1F649F662707
:10241000B00DA11D661F829F2227B00DA11D621F56
:10242000739FB00DA11D621F839FA00D611D221F10
:10243000749F3327A00D611D231F849F600D211DF4
:10244000822F762F6A2F11249F5750409AF0F1F077
:1024500088234AF0EE0FFF1FBB1F661F771F881FE0
:1024600091505040A9F79E3F510580F00C944D12B9
:102470000C9498125F3FE4F3983ED4F386957795D9
:102480006795B795F795E7959F5FC1F7FE2B880F86
:10249000911D9695879597F9089597F99F6780E81C
:1024A00070E060E008959FEF80EC089500240A94A6
:1024B0001616170618060906089500240A9412161F
:1024C0001306140605060895092E0394000C11F452
:1024D000882352F0BB0F40F4BF2B11F460FF04C0FF
:1024E0006F5F7F4F8F4F9F4F089557FD9058440F58
:1024F000551F59F05F3F71F04795880F97FB991F63
:1025000061F09F3F79F0879508951216130614061F
:10251000551FF2CF4695F1DF08C0161617061806AC
:10252000991FF1CF86957105610508940895E89487
:10253000BB2766277727CB0197F908952F923F9203
:102540004F925F926F927F928F929F92AF92BF92C3
:10255000CF92DF92EF92FF920F931F93CF93DF936F
:10256000CDB7DEB7CA1BDB0B0FB6F894DEBF0FBECC
:10257000CDBF09942A88398848885F846E847D8419
:102580008C849B84AA84B984C884DF80EE80FD801B
:102590000C811B81AA81B981CE0FD11D0FB6F89491
:1025A000DEBF0FBECDBFED0108950E94BC1108F43F
:1025B0008FEF089597FB072E16F4009407D077FD50
:1025C00009D00E94EE1207FC05D03EF4909581954B
:1025D0009F4F0895709561957F4F0895AA1BBB1B6F
:1025E00051E107C0AA1FBB1FA617B70710F0A61B13
:1025F000B70B881F991F5A95A9F780959095BC0134
:10260000CD010895EE0FFF1F0590F491E02D099480
:102610000F931F93CF93DF938230910510F482E0E4
:1026200090E0E0911103F091120330E020E0B0E07F
:10263000A0E0309799F42115310509F44AC0281B10
:10264000390B24303105D8F58A819B8161157105DC
:1026500089F1FB0193838283FE0111C04081518186
:102660000281138148175907E0F04817590799F478
:10267000109761F012960C93129713961C93329652
:10268000CF01DF91CF911F910F9108950093110316
:1026900010931203F4CF2115310551F0421753075F
:1026A00038F0A901DB019A01BD01DF01F801C1CFBA
:1026B000EF01F9CF9093120380931103CDCFFE0168
:1026C000E20FF31F819391932250310939832883BC
:1026D000D7CF20910F0330911003232B41F4209189
:1026E0001501309116013093100320930F032091B0
:1026F0001301309114012115310541F42DB73EB776
:102700004091170150911801241B350BE0910F03E4
:10271000F0911003E217F307A0F42E1B3F0B2817CC
:10272000390778F0AC014E5F5F4F2417350748F04A
:102730004E0F5F1F5093100340930F0381939193AB
:102740009FCFF0E0E0E09CCFCF93DF930097E9F0DC
:10275000FC01329713821282A0911103B0911203EF
:10276000ED0130E020E01097A1F420813181820F4B
:10277000931F20910F03309110032817390709F098
:1027800061C0F0931003E0930F03DF91CF910895A0
:10279000EA01CE17DF07E8F54A815B819E0141150A
:1027A0005105B1F7E901FB83EA8349915991C40FBF
:1027B000D51FEC17FD0761F4808191810296840F8B
:1027C000951FE90199838883828193819B838A8302
:1027D000F0E0E0E012968D919C9113970097B9F587
:1027E0002D913C911197CD010296820F931F20915C
:1027F0000F03309110032817390739F6309751F538
:102800001092120310921103B0931003A0930F03C0
:10281000BCCFD383C28340815181840F951FC817D9
:10282000D90761F44E5F5F4F88819981480F591F26
:10283000518340838A819B81938382832115310553
:1028400009F0B0CFF0931203E09311039ECFFD0186
:10285000DC01C0CF13821282D7CFB0E0A0E0E3E367
:10286000F4E10C94A0128C01009751F4CB010E946A
:1028700008138C01C801CDB7DEB7E0E10C94BC129F
:10288000FC01E60FF71F9C0122503109E217F30704
:1028900008F49DC0D901CD91DC911197C617D707D7
:1028A00098F0C530D10530F3CE010497861797070D
:1028B00008F3C61BD70B2297C193D1936D937C93DA
:1028C000CF010E94A413D6CF5B01AC1ABD0A4C0104
:1028D0008C0E9D1EA0911103B0911203512C412C1E
:1028E000F12CE12C109731F580910F03909110039A
:1028F0008815990509F05CC04616570608F058C0BF
:102900008091130190911401009741F48DB79EB707
:102910004091170150911801841B950BE817F90796
:1029200008F055C0F0931003E0930F03F901718391
:102930006083A0CF8D919C91119712966C90129705
:1029400013967C901397A815B90559F56C0142E0D0
:10295000C40ED11CCA14DB0420F1AC014A195B0976
:10296000DA011296159780F0628273825183408358
:10297000D9016D937C93E114F10471F0D7011396A2
:10298000FC93EE93129776CF22968C0F9D1FF90140
:1029900091838083F301EFCFF0931203E09311034F
:1029A00069CF4816590608F42C017D01D3019ACF4E
:1029B000CB010E9408137C01009749F0AE01B801D9
:1029C0000E94EA14C8010E94A413870153CF10E0AB
:1029D00000E050CFFB01DC0102C001900D9241509C
:1029E0005040D8F70895FB01DC018D9101908019CA
:1029F0000110D9F3990B0895FB01DC0101900D92B0
:102A00000020E1F7089510E0CFEED0E004C0FE0111
:102A10000E9402132196C03FD107C9F7F894FFCF57
:102A200008070602030405313233343536373839A6
:102A30002A30230000130380005E00BC00770100F1
:102A4000000000B803FF0245030504760354036841
:102A50000300000000F402F802FC020D0A0020C28C
:102A6000B043003132333435004D4F444F5F505244
:102A70004F4752414D4143494F4E00444553414316
:102A800054495641444F005355504552415F554DAE
:102A90004252414C00456E74726164613A200054A8
:102AA000656D70657261747572613A20004C756D68
:0C2AB000696E6F63696461643A20000085
:00000001FF
